{
    "contractName": "JStoken",
    "abi": [
        {
            "inputs": [
                {
                    "internalType": "string",
                    "name": "name",
                    "type": "string"
                },
                {
                    "internalType": "string",
                    "name": "symbol",
                    "type": "string"
                },
                {
                    "internalType": "uint8",
                    "name": "decimals",
                    "type": "uint8"
                },
                {
                    "internalType": "uint256",
                    "name": "initialSupply",
                    "type": "uint256"
                }
            ],
            "stateMutability": "nonpayable",
            "type": "constructor"
        },
        {
            "anonymous": false,
            "inputs": [
                {
                    "indexed": true,
                    "internalType": "address",
                    "name": "owner",
                    "type": "address"
                },
                {
                    "indexed": true,
                    "internalType": "address",
                    "name": "spender",
                    "type": "address"
                },
                {
                    "indexed": false,
                    "internalType": "uint256",
                    "name": "value",
                    "type": "uint256"
                }
            ],
            "name": "Approval",
            "type": "event"
        },
        {
            "anonymous": false,
            "inputs": [
                {
                    "indexed": true,
                    "internalType": "address",
                    "name": "account",
                    "type": "address"
                }
            ],
            "name": "MinterAdded",
            "type": "event"
        },
        {
            "anonymous": false,
            "inputs": [
                {
                    "indexed": true,
                    "internalType": "address",
                    "name": "account",
                    "type": "address"
                }
            ],
            "name": "MinterRemoved",
            "type": "event"
        },
        {
            "anonymous": false,
            "inputs": [
                {
                    "indexed": true,
                    "internalType": "address",
                    "name": "previousOwner",
                    "type": "address"
                },
                {
                    "indexed": true,
                    "internalType": "address",
                    "name": "newOwner",
                    "type": "address"
                }
            ],
            "name": "OwnershipTransferred",
            "type": "event"
        },
        {
            "anonymous": false,
            "inputs": [
                {
                    "indexed": false,
                    "internalType": "address",
                    "name": "account",
                    "type": "address"
                }
            ],
            "name": "Paused",
            "type": "event"
        },
        {
            "anonymous": false,
            "inputs": [
                {
                    "indexed": true,
                    "internalType": "address",
                    "name": "account",
                    "type": "address"
                }
            ],
            "name": "PauserAdded",
            "type": "event"
        },
        {
            "anonymous": false,
            "inputs": [
                {
                    "indexed": true,
                    "internalType": "address",
                    "name": "account",
                    "type": "address"
                }
            ],
            "name": "PauserRemoved",
            "type": "event"
        },
        {
            "anonymous": false,
            "inputs": [
                {
                    "indexed": true,
                    "internalType": "address",
                    "name": "from",
                    "type": "address"
                },
                {
                    "indexed": true,
                    "internalType": "address",
                    "name": "to",
                    "type": "address"
                },
                {
                    "indexed": false,
                    "internalType": "uint256",
                    "name": "value",
                    "type": "uint256"
                }
            ],
            "name": "Transfer",
            "type": "event"
        },
        {
            "anonymous": false,
            "inputs": [
                {
                    "indexed": false,
                    "internalType": "address",
                    "name": "account",
                    "type": "address"
                }
            ],
            "name": "Unpaused",
            "type": "event"
        },
        {
            "inputs": [
                {
                    "internalType": "address",
                    "name": "account",
                    "type": "address"
                }
            ],
            "name": "addMinter",
            "outputs": [],
            "stateMutability": "nonpayable",
            "type": "function"
        },
        {
            "inputs": [
                {
                    "internalType": "address",
                    "name": "account",
                    "type": "address"
                }
            ],
            "name": "addPauser",
            "outputs": [],
            "stateMutability": "nonpayable",
            "type": "function"
        },
        {
            "inputs": [
                {
                    "internalType": "address",
                    "name": "owner",
                    "type": "address"
                },
                {
                    "internalType": "address",
                    "name": "spender",
                    "type": "address"
                }
            ],
            "name": "allowance",
            "outputs": [
                {
                    "internalType": "uint256",
                    "name": "",
                    "type": "uint256"
                }
            ],
            "stateMutability": "view",
            "type": "function"
        },
        {
            "inputs": [
                {
                    "internalType": "address",
                    "name": "spender",
                    "type": "address"
                },
                {
                    "internalType": "uint256",
                    "name": "value",
                    "type": "uint256"
                }
            ],
            "name": "approve",
            "outputs": [
                {
                    "internalType": "bool",
                    "name": "",
                    "type": "bool"
                }
            ],
            "stateMutability": "nonpayable",
            "type": "function"
        },
        {
            "inputs": [
                {
                    "internalType": "address",
                    "name": "account",
                    "type": "address"
                }
            ],
            "name": "balanceOf",
            "outputs": [
                {
                    "internalType": "uint256",
                    "name": "",
                    "type": "uint256"
                }
            ],
            "stateMutability": "view",
            "type": "function"
        },
        {
            "inputs": [
                {
                    "internalType": "uint256",
                    "name": "amount",
                    "type": "uint256"
                }
            ],
            "name": "burn",
            "outputs": [],
            "stateMutability": "nonpayable",
            "type": "function"
        },
        {
            "inputs": [
                {
                    "internalType": "address",
                    "name": "account",
                    "type": "address"
                },
                {
                    "internalType": "uint256",
                    "name": "amount",
                    "type": "uint256"
                }
            ],
            "name": "burnFrom",
            "outputs": [],
            "stateMutability": "nonpayable",
            "type": "function"
        },
        {
            "inputs": [],
            "name": "decimals",
            "outputs": [
                {
                    "internalType": "uint8",
                    "name": "",
                    "type": "uint8"
                }
            ],
            "stateMutability": "view",
            "type": "function"
        },
        {
            "inputs": [
                {
                    "internalType": "address",
                    "name": "account",
                    "type": "address"
                }
            ],
            "name": "isMinter",
            "outputs": [
                {
                    "internalType": "bool",
                    "name": "",
                    "type": "bool"
                }
            ],
            "stateMutability": "view",
            "type": "function"
        },
        {
            "inputs": [
                {
                    "internalType": "address",
                    "name": "account",
                    "type": "address"
                }
            ],
            "name": "isPauser",
            "outputs": [
                {
                    "internalType": "bool",
                    "name": "",
                    "type": "bool"
                }
            ],
            "stateMutability": "view",
            "type": "function"
        },
        {
            "inputs": [
                {
                    "internalType": "address",
                    "name": "account",
                    "type": "address"
                },
                {
                    "internalType": "uint256",
                    "name": "amount",
                    "type": "uint256"
                }
            ],
            "name": "mint",
            "outputs": [
                {
                    "internalType": "bool",
                    "name": "",
                    "type": "bool"
                }
            ],
            "stateMutability": "nonpayable",
            "type": "function"
        },
        {
            "inputs": [],
            "name": "name",
            "outputs": [
                {
                    "internalType": "string",
                    "name": "",
                    "type": "string"
                }
            ],
            "stateMutability": "view",
            "type": "function"
        },
        {
            "inputs": [],
            "name": "owner",
            "outputs": [
                {
                    "internalType": "address",
                    "name": "",
                    "type": "address"
                }
            ],
            "stateMutability": "view",
            "type": "function"
        },
        {
            "inputs": [],
            "name": "pause",
            "outputs": [],
            "stateMutability": "nonpayable",
            "type": "function"
        },
        {
            "inputs": [],
            "name": "paused",
            "outputs": [
                {
                    "internalType": "bool",
                    "name": "",
                    "type": "bool"
                }
            ],
            "stateMutability": "view",
            "type": "function"
        },
        {
            "inputs": [],
            "name": "renounceMinter",
            "outputs": [],
            "stateMutability": "nonpayable",
            "type": "function"
        },
        {
            "inputs": [],
            "name": "renounceOwnership",
            "outputs": [],
            "stateMutability": "nonpayable",
            "type": "function"
        },
        {
            "inputs": [],
            "name": "renouncePauser",
            "outputs": [],
            "stateMutability": "nonpayable",
            "type": "function"
        },
        {
            "inputs": [
                {
                    "internalType": "address",
                    "name": "recipient",
                    "type": "address"
                },
                {
                    "internalType": "uint256",
                    "name": "amount",
                    "type": "uint256"
                }
            ],
            "name": "safeTransfer",
            "outputs": [],
            "stateMutability": "nonpayable",
            "type": "function"
        },
        {
            "inputs": [
                {
                    "internalType": "address",
                    "name": "recipient",
                    "type": "address"
                },
                {
                    "internalType": "uint256",
                    "name": "amount",
                    "type": "uint256"
                },
                {
                    "internalType": "bytes",
                    "name": "data",
                    "type": "bytes"
                }
            ],
            "name": "safeTransfer",
            "outputs": [],
            "stateMutability": "nonpayable",
            "type": "function"
        },
        {
            "inputs": [
                {
                    "internalType": "address",
                    "name": "sender",
                    "type": "address"
                },
                {
                    "internalType": "address",
                    "name": "recipient",
                    "type": "address"
                },
                {
                    "internalType": "uint256",
                    "name": "amount",
                    "type": "uint256"
                }
            ],
            "name": "safeTransferFrom",
            "outputs": [],
            "stateMutability": "nonpayable",
            "type": "function"
        },
        {
            "inputs": [
                {
                    "internalType": "address",
                    "name": "sender",
                    "type": "address"
                },
                {
                    "internalType": "address",
                    "name": "recipient",
                    "type": "address"
                },
                {
                    "internalType": "uint256",
                    "name": "amount",
                    "type": "uint256"
                },
                {
                    "internalType": "bytes",
                    "name": "data",
                    "type": "bytes"
                }
            ],
            "name": "safeTransferFrom",
            "outputs": [],
            "stateMutability": "nonpayable",
            "type": "function"
        },
        {
            "inputs": [
                {
                    "internalType": "bytes4",
                    "name": "interfaceId",
                    "type": "bytes4"
                }
            ],
            "name": "supportsInterface",
            "outputs": [
                {
                    "internalType": "bool",
                    "name": "",
                    "type": "bool"
                }
            ],
            "stateMutability": "view",
            "type": "function"
        },
        {
            "inputs": [],
            "name": "symbol",
            "outputs": [
                {
                    "internalType": "string",
                    "name": "",
                    "type": "string"
                }
            ],
            "stateMutability": "view",
            "type": "function"
        },
        {
            "inputs": [],
            "name": "totalSupply",
            "outputs": [
                {
                    "internalType": "uint256",
                    "name": "",
                    "type": "uint256"
                }
            ],
            "stateMutability": "view",
            "type": "function"
        },
        {
            "inputs": [
                {
                    "internalType": "address",
                    "name": "recipient",
                    "type": "address"
                },
                {
                    "internalType": "uint256",
                    "name": "amount",
                    "type": "uint256"
                }
            ],
            "name": "transfer",
            "outputs": [
                {
                    "internalType": "bool",
                    "name": "",
                    "type": "bool"
                }
            ],
            "stateMutability": "nonpayable",
            "type": "function"
        },
        {
            "inputs": [
                {
                    "internalType": "address",
                    "name": "sender",
                    "type": "address"
                },
                {
                    "internalType": "address",
                    "name": "recipient",
                    "type": "address"
                },
                {
                    "internalType": "uint256",
                    "name": "amount",
                    "type": "uint256"
                }
            ],
            "name": "transferFrom",
            "outputs": [
                {
                    "internalType": "bool",
                    "name": "",
                    "type": "bool"
                }
            ],
            "stateMutability": "nonpayable",
            "type": "function"
        },
        {
            "inputs": [
                {
                    "internalType": "address",
                    "name": "newOwner",
                    "type": "address"
                }
            ],
            "name": "transferOwnership",
            "outputs": [],
            "stateMutability": "nonpayable",
            "type": "function"
        },
        {
            "inputs": [],
            "name": "unpause",
            "outputs": [],
            "stateMutability": "nonpayable",
            "type": "function"
        }
    ],
    "bytecode": "60806040523480156200001157600080fd5b506040516200219338038062002193833981016040819052620000349162000603565b838383620000496301ffc9a760e01b62000131565b6200005b636578737160e01b62000131565b825162000070906004906020860190620004b2565b50815162000086906005906020850190620004b2565b506006805460ff191660ff8316179055620000a863a219a02560e01b62000131565b505050620000c5620000bf6200018c60201b60201c565b62000190565b620000d033620001ea565b620000e2630755c1f160e51b62000131565b620000f463076b417f60e31b62000131565b620000ff336200023c565b6009805460ff191690556200011b634d5507ff60e01b62000131565b6200012733826200028e565b5050505062000873565b6001600160e01b03198082161415620001675760405162461bcd60e51b81526004016200015e906200072f565b60405180910390fd5b6001600160e01b0319166000908152602081905260409020805460ff19166001179055565b3390565b600680546001600160a01b03838116610100818102610100600160a81b031985161790945560405193909204169182907f8be0079c531659141344cd1fd0a4f28419497f9722a3daafe3b4186f6b6457e090600090a35050565b620002058160076200037360201b6200093e1790919060201c565b6040516001600160a01b038216907f6ae172837ea30b801fbfcdd4108aa1d5bf8ff775444fd70256b44e6bf3dfc3f690600090a250565b620002578160086200037360201b6200093e1790919060201c565b6040516001600160a01b038216907f6719d08c1888103bea251a4ed56406bd0c3e69723c8a1686e017e7bbe159b6f890600090a250565b6001600160a01b038216620002b75760405162461bcd60e51b81526004016200015e90620006f8565b620002c560008383620003c4565b620002e181600354620003e160201b6200098a1790919060201c565b6003556001600160a01b038216600090815260016020908152604090912054620003169183906200098a620003e1821b17901c565b6001600160a01b0383166000818152600160205260408082209390935591519091907fddf252ad1be2c89b69c2b068fc378daa952ba7f163c4a11628f55a4df523b3ef9062000367908590620007f2565b60405180910390a35050565b6200037f82826200041c565b156200039f5760405162461bcd60e51b81526004016200015e906200068a565b6001600160a01b0316600090815260209190915260409020805460ff19166001179055565b620003dc8383836200046760201b620009c01760201c565b505050565b600080620003f08385620007fb565b905083811015620004155760405162461bcd60e51b81526004016200015e90620006c1565b9392505050565b60006001600160a01b038216620004475760405162461bcd60e51b81526004016200015e9062000766565b506001600160a01b03166000908152602091909152604090205460ff1690565b6200047f838383620003dc60201b620005f71760201c565b62000489620004a9565b15620003dc5760405162461bcd60e51b81526004016200015e90620007a8565b60095460ff1690565b828054620004c09062000820565b90600052602060002090601f016020900481019282620004e457600085556200052f565b82601f10620004ff57805160ff19168380011785556200052f565b828001600101855582156200052f579182015b828111156200052f57825182559160200191906001019062000512565b506200053d92915062000541565b5090565b5b808211156200053d576000815560010162000542565b600082601f83011262000569578081fd5b81516001600160401b03808211156200058657620005866200085d565b6040516020601f8401601f1916820181018381118382101715620005ae57620005ae6200085d565b6040528382528584018101871015620005c5578485fd5b8492505b83831015620005e85785830181015182840182015291820191620005c9565b83831115620005f957848185840101525b5095945050505050565b6000806000806080858703121562000619578384fd5b84516001600160401b038082111562000630578586fd5b6200063e8883890162000558565b9550602087015191508082111562000654578485fd5b50620006638782880162000558565b935050604085015160ff811681146200067a578283fd5b6060959095015193969295505050565b6020808252601f908201527f526f6c65733a206163636f756e7420616c72656164792068617320726f6c6500604082015260600190565b6020808252601b908201527f536166654d6174683a206164646974696f6e206f766572666c6f770000000000604082015260600190565b6020808252601e908201527f4b4950373a206d696e7420746f20746865207a65726f20616464726573730000604082015260600190565b6020808252601b908201527f4b495031333a20696e76616c696420696e746572666163652069640000000000604082015260600190565b60208082526022908201527f526f6c65733a206163636f756e7420697320746865207a65726f206164647265604082015261737360f01b606082015260800190565b6020808252602a908201527f45524332305061757361626c653a20746f6b656e207472616e736665722077686040820152691a5b19481c185d5cd95960b21b606082015260800190565b90815260200190565b600082198211156200081b57634e487b7160e01b81526011600452602481fd5b500190565b6002810460018216806200083557607f821691505b602082108114156200085757634e487b7160e01b600052602260045260246000fd5b50919050565b634e487b7160e01b600052604160045260246000fd5b61191080620008836000396000f3fe608060405234801561001057600080fd5b50600436106101cf5760003560e01c806370a0823111610104578063983b2d56116100a2578063b88d4fde11610071578063b88d4fde14610382578063dd62ed3e14610395578063eb795549146103a8578063f2fde38b146103bb576101cf565b8063983b2d56146103415780639865027514610354578063a9059cbb1461035c578063aa271e1a1461036f576101cf565b806382dc1ec4116100de57806382dc1ec4146103095780638456cb591461031c5780638da5cb5b1461032457806395d89b4114610339576101cf565b806370a08231146102db578063715018a6146102ee57806379cc6790146102f6576101cf565b806340c10f191161017157806342966c681161014b57806342966c68146102a557806346fbf68e146102b85780635c975abb146102cb5780636ef8d66d146102d3576101cf565b806340c10f191461026c578063423f6cef1461027f57806342842e0e14610292576101cf565b806318160ddd116101ad57806318160ddd1461022557806323b872dd1461023a578063313ce5671461024d5780633f4ba83a14610262576101cf565b806301ffc9a7146101d457806306fdde03146101fd578063095ea7b314610212575b600080fd5b6101e76101e236600461129b565b6103ce565b6040516101f49190611387565b60405180910390f35b6102056103f1565b6040516101f49190611392565b6101e761022036600461121d565b610483565b61022d610499565b6040516101f49190611817565b6101e761024836600461117c565b61049f565b6102556104f0565b6040516101f49190611820565b61026a6104f9565b005b6101e761027a36600461121d565b61058d565b61026a61028d36600461121d565b6105be565b61026a6102a036600461117c565b6105dc565b61026a6102b33660046112d3565b6105fc565b6101e76102c6366004611130565b610648565b6101e761065b565b61026a610664565b61022d6102e9366004611130565b61066f565b61026a61068a565b61026a61030436600461121d565b6106d3565b61026a610317366004611130565b6106dd565b61026a610725565b61032c6107aa565b6040516101f49190611336565b6102056107be565b61026a61034f366004611130565b6107cd565b61026a610815565b6101e761036a36600461121d565b61081e565b6101e761037d366004611130565b61082b565b61026a6103903660046111b7565b610838565b61022d6103a336600461114a565b610872565b61026a6103b6366004611246565b61089d565b61026a6103c9366004611130565b6108d0565b6001600160e01b0319811660009081526020819052604090205460ff165b919050565b6060600480546104009061185d565b80601f016020809104026020016040519081016040528092919081815260200182805461042c9061185d565b80156104795780601f1061044e57610100808354040283529160200191610479565b820191906000526020600020905b81548152906001019060200180831161045c57829003601f168201915b5050505050905090565b60006104903384846109f0565b50600192915050565b60035490565b60006104ac848484610aa4565b6001600160a01b0384166000908152600260209081526040808320338085529252909120546104e69186916104e19086610b9f565b6109f0565b5060019392505050565b60065460ff1690565b61050233610648565b6105275760405162461bcd60e51b815260040161051e90611499565b60405180910390fd5b60095460ff166105495760405162461bcd60e51b815260040161051e90611434565b6009805460ff191690556040517f5db9ee0a495bf2e6ff9c91a7834c1ba4fdd244a5e8aa4e537bd38aeae4b073aa90610583903390611336565b60405180910390a1565b60006105983361082b565b6105b45760405162461bcd60e51b815260040161051e9061163e565b6104908383610be1565b6105d882826040518060200160405280600081525061089d565b5050565b6105f783838360405180602001604052806000815250610838565b505050565b610604610ca1565b6001600160a01b03166106156107aa565b6001600160a01b03161461063b5760405162461bcd60e51b815260040161051e90611713565b6106453382610ca5565b50565b6000610655600883610d56565b92915050565b60095460ff1690565b61066d33610d9e565b565b6001600160a01b031660009081526001602052604090205490565b610692610ca1565b6001600160a01b03166106a36107aa565b6001600160a01b0316146106c95760405162461bcd60e51b815260040161051e90611713565b61066d6000610de0565b6105d88282610e3a565b6106e5610ca1565b6001600160a01b03166106f66107aa565b6001600160a01b03161461071c5760405162461bcd60e51b815260040161051e90611713565b61064581610e79565b61072e33610648565b61074a5760405162461bcd60e51b815260040161051e90611499565b60095460ff161561076d5760405162461bcd60e51b815260040161051e90611614565b6009805460ff191660011790556040517f62e78cea01bee320cd4e420270b5ea74000d11b0c9f74754ebdbfc544b05a25890610583903390611336565b60065461010090046001600160a01b031690565b6060600580546104009061185d565b6107d5610ca1565b6001600160a01b03166107e66107aa565b6001600160a01b03161461080c5760405162461bcd60e51b815260040161051e90611713565b61064581610ebb565b61066d33610efd565b6000610490338484610aa4565b6000610655600783610d56565b61084384848461049f565b5061085084848484610f3f565b61086c5760405162461bcd60e51b815260040161051e906113e6565b50505050565b6001600160a01b03918216600090815260026020908152604080832093909416825291909152205490565b6108a7838361081e565b506108b433848484610f3f565b6105f75760405162461bcd60e51b815260040161051e906113e6565b6108d8610ca1565b6001600160a01b03166108e96107aa565b6001600160a01b03161461090f5760405162461bcd60e51b815260040161051e90611713565b6001600160a01b0381166109355760405162461bcd60e51b815260040161051e906114e9565b61064581610de0565b6109488282610d56565b156109655760405162461bcd60e51b815260040161051e90611462565b6001600160a01b0316600090815260209190915260409020805460ff19166001179055565b600080610997838561182e565b9050838110156109b95760405162461bcd60e51b815260040161051e9061152f565b9392505050565b6109cb8383836105f7565b6109d361065b565b156105f75760405162461bcd60e51b815260040161051e906117cd565b6001600160a01b038316610a165760405162461bcd60e51b815260040161051e9061178a565b6001600160a01b038216610a3c5760405162461bcd60e51b815260040161051e906113a5565b6001600160a01b0380841660008181526002602090815260408083209487168084529490915290819020849055517f8c5be1e5ebec7d5bd14f71427d1e84f3dd0314c0f7b2291e5b200ac8c7c3b92590610a97908590611817565b60405180910390a3505050565b6001600160a01b038316610aca5760405162461bcd60e51b815260040161051e906116cf565b6001600160a01b038216610af05760405162461bcd60e51b815260040161051e906115d2565b610afb838383611005565b6001600160a01b038316600090815260016020526040902054610b1e9082610b9f565b6001600160a01b038085166000908152600160205260408082209390935590841681522054610b4d908261098a565b6001600160a01b0380841660008181526001602052604090819020939093559151908516907fddf252ad1be2c89b69c2b068fc378daa952ba7f163c4a11628f55a4df523b3ef90610a97908590611817565b60006109b983836040518060400160405280601e81526020017f536166654d6174683a207375627472616374696f6e206f766572666c6f770000815250611010565b6001600160a01b038216610c075760405162461bcd60e51b815260040161051e90611566565b610c1360008383611005565b600354610c20908261098a565b6003556001600160a01b038216600090815260016020526040902054610c46908261098a565b6001600160a01b0383166000818152600160205260408082209390935591519091907fddf252ad1be2c89b69c2b068fc378daa952ba7f163c4a11628f55a4df523b3ef90610c95908590611817565b60405180910390a35050565b3390565b6001600160a01b038216610ccb5760405162461bcd60e51b815260040161051e9061159d565b610cd760008383611005565b600354610ce49082610b9f565b6003556001600160a01b038216600090815260016020526040902054610d0a9082610b9f565b6001600160a01b0383166000818152600160205260408082209390935591517fddf252ad1be2c89b69c2b068fc378daa952ba7f163c4a11628f55a4df523b3ef90610c95908590611817565b60006001600160a01b038216610d7e5760405162461bcd60e51b815260040161051e90611748565b506001600160a01b03166000908152602091909152604090205460ff1690565b610da960088261104a565b6040516001600160a01b038216907fcd265ebaf09df2871cc7bd4133404a235ba12eff2041bb89d9c714a2621c7c7e90600090a250565b600680546001600160a01b03838116610100818102610100600160a81b031985161790945560405193909204169182907f8be0079c531659141344cd1fd0a4f28419497f9722a3daafe3b4186f6b6457e090600090a35050565b610e448282610ca5565b6001600160a01b0382166000908152600260209081526040808320338085529252909120546105d89184916104e19085610b9f565b610e8460088261093e565b6040516001600160a01b038216907f6719d08c1888103bea251a4ed56406bd0c3e69723c8a1686e017e7bbe159b6f890600090a250565b610ec660078261093e565b6040516001600160a01b038216907f6ae172837ea30b801fbfcdd4108aa1d5bf8ff775444fd70256b44e6bf3dfc3f690600090a250565b610f0860078261104a565b6040516001600160a01b038216907fe94479a9f7e1952cc78f2d6baab678adc1b772d936c6583def489e524cb6669290600090a250565b6000610f53846001600160a01b0316611092565b610f5f57506001610ffd565b604051634e8c461160e11b81526000906001600160a01b03861690639d188c2290610f949033908a908990899060040161134a565b602060405180830381600087803b158015610fae57600080fd5b505af1158015610fc2573d6000803e3d6000fd5b505050506040513d601f19601f82011682018060405250810190610fe691906112b7565b6001600160e01b031916634e8c461160e11b149150505b949350505050565b6105f78383836109c0565b600081848411156110345760405162461bcd60e51b815260040161051e9190611392565b5060006110418486611846565b95945050505050565b6110548282610d56565b6110705760405162461bcd60e51b815260040161051e9061168e565b6001600160a01b0316600090815260209190915260409020805460ff19169055565b3b151590565b80356001600160a01b03811681146103ec57600080fd5b600082601f8301126110bf578081fd5b813567ffffffffffffffff808211156110da576110da6118ae565b604051601f8301601f1916810160200182811182821017156110fe576110fe6118ae565b604052828152848301602001861015611115578384fd5b82602086016020830137918201602001929092529392505050565b600060208284031215611141578081fd5b6109b982611098565b6000806040838503121561115c578081fd5b61116583611098565b915061117360208401611098565b90509250929050565b600080600060608486031215611190578081fd5b61119984611098565b92506111a760208501611098565b9150604084013590509250925092565b600080600080608085870312156111cc578081fd5b6111d585611098565b93506111e360208601611098565b925060408501359150606085013567ffffffffffffffff811115611205578182fd5b611211878288016110af565b91505092959194509250565b6000806040838503121561122f578182fd5b61123883611098565b946020939093013593505050565b60008060006060848603121561125a578283fd5b61126384611098565b925060208401359150604084013567ffffffffffffffff811115611285578182fd5b611291868287016110af565b9150509250925092565b6000602082840312156112ac578081fd5b81356109b9816118c4565b6000602082840312156112c8578081fd5b81516109b9816118c4565b6000602082840312156112e4578081fd5b5035919050565b60008151808452815b81811015611310576020818501810151868301820152016112f4565b818111156113215782602083870101525b50601f01601f19169290920160200192915050565b6001600160a01b0391909116815260200190565b6001600160a01b038581168252841660208201526040810183905260806060820181905260009061137d908301846112eb565b9695505050505050565b901515815260200190565b6000602082526109b960208301846112eb565b60208082526021908201527f4b4950373a20617070726f766520746f20746865207a65726f206164647265736040820152607360f81b606082015260800190565b6020808252602e908201527f4b4950373a207472616e7366657220746f206e6f6e204b49503752656365697660408201526d32b91034b6b83632b6b2b73a32b960911b606082015260800190565b60208082526014908201527314185d5cd8589b194e881b9bdd081c185d5cd95960621b604082015260600190565b6020808252601f908201527f526f6c65733a206163636f756e7420616c72656164792068617320726f6c6500604082015260600190565b60208082526030908201527f506175736572526f6c653a2063616c6c657220646f6573206e6f74206861766560408201526f207468652050617573657220726f6c6560801b606082015260800190565b60208082526026908201527f4f776e61626c653a206e6577206f776e657220697320746865207a65726f206160408201526564647265737360d01b606082015260800190565b6020808252601b908201527f536166654d6174683a206164646974696f6e206f766572666c6f770000000000604082015260600190565b6020808252601e908201527f4b4950373a206d696e7420746f20746865207a65726f20616464726573730000604082015260600190565b6020808252818101527f4b4950373a206275726e2066726f6d20746865207a65726f2061646472657373604082015260600190565b60208082526022908201527f4b4950373a207472616e7366657220746f20746865207a65726f206164647265604082015261737360f01b606082015260800190565b60208082526010908201526f14185d5cd8589b194e881c185d5cd95960821b604082015260600190565b60208082526030908201527f4d696e746572526f6c653a2063616c6c657220646f6573206e6f74206861766560408201526f20746865204d696e74657220726f6c6560801b606082015260800190565b60208082526021908201527f526f6c65733a206163636f756e7420646f6573206e6f74206861766520726f6c6040820152606560f81b606082015260800190565b60208082526024908201527f4b4950373a207472616e736665722066726f6d20746865207a65726f206164646040820152637265737360e01b606082015260800190565b6020808252818101527f4f776e61626c653a2063616c6c6572206973206e6f7420746865206f776e6572604082015260600190565b60208082526022908201527f526f6c65733a206163636f756e7420697320746865207a65726f206164647265604082015261737360f01b606082015260800190565b60208082526023908201527f4b4950373a20617070726f76652066726f6d20746865207a65726f206164647260408201526265737360e81b606082015260800190565b6020808252602a908201527f45524332305061757361626c653a20746f6b656e207472616e736665722077686040820152691a5b19481c185d5cd95960b21b606082015260800190565b90815260200190565b60ff91909116815260200190565b6000821982111561184157611841611898565b500190565b60008282101561185857611858611898565b500390565b60028104600182168061187157607f821691505b6020821081141561189257634e487b7160e01b600052602260045260246000fd5b50919050565b634e487b7160e01b600052601160045260246000fd5b634e487b7160e01b600052604160045260246000fd5b6001600160e01b03198116811461064557600080fdfea26469706673582212209cb91e87e75cc77cbed10b28740ae87a72d7db29da1345d1e704172fcc8d99f964736f6c63430008000033",
    "sourcePath": "/Users/blluv/klaytn-contracts/contracts/JStoken.sol",
    "compiler": {
        "name": "solc",
        "version": "0.8.0+commit.c7dfd78e"
    },
    "functionHashes": {
        "addMinter(address)": "983b2d56",
        "addPauser(address)": "82dc1ec4",
        "allowance(address,address)": "dd62ed3e",
        "approve(address,uint256)": "095ea7b3",
        "balanceOf(address)": "70a08231",
        "burn(uint256)": "42966c68",
        "burnFrom(address,uint256)": "79cc6790",
        "decimals()": "313ce567",
        "isMinter(address)": "aa271e1a",
        "isPauser(address)": "46fbf68e",
        "mint(address,uint256)": "40c10f19",
        "name()": "06fdde03",
        "owner()": "8da5cb5b",
        "pause()": "8456cb59",
        "paused()": "5c975abb",
        "renounceMinter()": "98650275",
        "renounceOwnership()": "715018a6",
        "renouncePauser()": "6ef8d66d",
        "safeTransfer(address,uint256)": "423f6cef",
        "safeTransfer(address,uint256,bytes)": "eb795549",
        "safeTransferFrom(address,address,uint256)": "42842e0e",
        "safeTransferFrom(address,address,uint256,bytes)": "b88d4fde",
        "supportsInterface(bytes4)": "01ffc9a7",
        "symbol()": "95d89b41",
        "totalSupply()": "18160ddd",
        "transfer(address,uint256)": "a9059cbb",
        "transferFrom(address,address,uint256)": "23b872dd",
        "transferOwnership(address)": "f2fde38b",
        "unpause()": "3f4ba83a"
    },
    "gasEstimates": {
        "creation": {
            "codeDepositCost": "1283200",
            "executionCost": "infinite",
            "totalCost": "infinite"
        },
        "external": {
            "addMinter(address)": "24419",
            "addPauser(address)": "24419",
            "allowance(address,address)": "infinite",
            "approve(address,uint256)": "22647",
            "balanceOf(address)": "1316",
            "burn(uint256)": "infinite",
            "burnFrom(address,uint256)": "infinite",
            "decimals()": "1136",
            "isMinter(address)": "1482",
            "isPauser(address)": "1438",
            "mint(address,uint256)": "infinite",
            "name()": "infinite",
            "owner()": "1170",
            "pause()": "24002",
            "paused()": "1129",
            "renounceMinter()": "23330",
            "renounceOwnership()": "23605",
            "renouncePauser()": "23374",
            "safeTransfer(address,uint256)": "infinite",
            "safeTransfer(address,uint256,bytes)": "infinite",
            "safeTransferFrom(address,address,uint256)": "infinite",
            "safeTransferFrom(address,address,uint256,bytes)": "infinite",
            "supportsInterface(bytes4)": "1341",
            "symbol()": "infinite",
            "totalSupply()": "1074",
            "transfer(address,uint256)": "infinite",
            "transferFrom(address,address,uint256)": "infinite",
            "transferOwnership(address)": "23842",
            "unpause()": "24038"
        },
        "internal": {
            "_beforeTokenTransfer(address,address,uint256)": "infinite"
        }
    }
}