{
    "contractName": "KIP7",
    "abi": [
        {
            "inputs": [],
            "stateMutability": "nonpayable",
            "type": "constructor"
        },
        {
            "anonymous": false,
            "inputs": [
                {
                    "indexed": true,
                    "internalType": "address",
                    "name": "owner",
                    "type": "address"
                },
                {
                    "indexed": true,
                    "internalType": "address",
                    "name": "spender",
                    "type": "address"
                },
                {
                    "indexed": false,
                    "internalType": "uint256",
                    "name": "value",
                    "type": "uint256"
                }
            ],
            "name": "Approval",
            "type": "event"
        },
        {
            "anonymous": false,
            "inputs": [
                {
                    "indexed": true,
                    "internalType": "address",
                    "name": "from",
                    "type": "address"
                },
                {
                    "indexed": true,
                    "internalType": "address",
                    "name": "to",
                    "type": "address"
                },
                {
                    "indexed": false,
                    "internalType": "uint256",
                    "name": "value",
                    "type": "uint256"
                }
            ],
            "name": "Transfer",
            "type": "event"
        },
        {
            "inputs": [
                {
                    "internalType": "address",
                    "name": "owner",
                    "type": "address"
                },
                {
                    "internalType": "address",
                    "name": "spender",
                    "type": "address"
                }
            ],
            "name": "allowance",
            "outputs": [
                {
                    "internalType": "uint256",
                    "name": "",
                    "type": "uint256"
                }
            ],
            "stateMutability": "view",
            "type": "function"
        },
        {
            "inputs": [
                {
                    "internalType": "address",
                    "name": "spender",
                    "type": "address"
                },
                {
                    "internalType": "uint256",
                    "name": "value",
                    "type": "uint256"
                }
            ],
            "name": "approve",
            "outputs": [
                {
                    "internalType": "bool",
                    "name": "",
                    "type": "bool"
                }
            ],
            "stateMutability": "nonpayable",
            "type": "function"
        },
        {
            "inputs": [
                {
                    "internalType": "address",
                    "name": "account",
                    "type": "address"
                }
            ],
            "name": "balanceOf",
            "outputs": [
                {
                    "internalType": "uint256",
                    "name": "",
                    "type": "uint256"
                }
            ],
            "stateMutability": "view",
            "type": "function"
        },
        {
            "inputs": [
                {
                    "internalType": "address",
                    "name": "recipient",
                    "type": "address"
                },
                {
                    "internalType": "uint256",
                    "name": "amount",
                    "type": "uint256"
                }
            ],
            "name": "safeTransfer",
            "outputs": [],
            "stateMutability": "nonpayable",
            "type": "function"
        },
        {
            "inputs": [
                {
                    "internalType": "address",
                    "name": "recipient",
                    "type": "address"
                },
                {
                    "internalType": "uint256",
                    "name": "amount",
                    "type": "uint256"
                },
                {
                    "internalType": "bytes",
                    "name": "data",
                    "type": "bytes"
                }
            ],
            "name": "safeTransfer",
            "outputs": [],
            "stateMutability": "nonpayable",
            "type": "function"
        },
        {
            "inputs": [
                {
                    "internalType": "address",
                    "name": "sender",
                    "type": "address"
                },
                {
                    "internalType": "address",
                    "name": "recipient",
                    "type": "address"
                },
                {
                    "internalType": "uint256",
                    "name": "amount",
                    "type": "uint256"
                }
            ],
            "name": "safeTransferFrom",
            "outputs": [],
            "stateMutability": "nonpayable",
            "type": "function"
        },
        {
            "inputs": [
                {
                    "internalType": "address",
                    "name": "sender",
                    "type": "address"
                },
                {
                    "internalType": "address",
                    "name": "recipient",
                    "type": "address"
                },
                {
                    "internalType": "uint256",
                    "name": "amount",
                    "type": "uint256"
                },
                {
                    "internalType": "bytes",
                    "name": "data",
                    "type": "bytes"
                }
            ],
            "name": "safeTransferFrom",
            "outputs": [],
            "stateMutability": "nonpayable",
            "type": "function"
        },
        {
            "inputs": [
                {
                    "internalType": "bytes4",
                    "name": "interfaceId",
                    "type": "bytes4"
                }
            ],
            "name": "supportsInterface",
            "outputs": [
                {
                    "internalType": "bool",
                    "name": "",
                    "type": "bool"
                }
            ],
            "stateMutability": "view",
            "type": "function"
        },
        {
            "inputs": [],
            "name": "totalSupply",
            "outputs": [
                {
                    "internalType": "uint256",
                    "name": "",
                    "type": "uint256"
                }
            ],
            "stateMutability": "view",
            "type": "function"
        },
        {
            "inputs": [
                {
                    "internalType": "address",
                    "name": "recipient",
                    "type": "address"
                },
                {
                    "internalType": "uint256",
                    "name": "amount",
                    "type": "uint256"
                }
            ],
            "name": "transfer",
            "outputs": [
                {
                    "internalType": "bool",
                    "name": "",
                    "type": "bool"
                }
            ],
            "stateMutability": "nonpayable",
            "type": "function"
        },
        {
            "inputs": [
                {
                    "internalType": "address",
                    "name": "sender",
                    "type": "address"
                },
                {
                    "internalType": "address",
                    "name": "recipient",
                    "type": "address"
                },
                {
                    "internalType": "uint256",
                    "name": "amount",
                    "type": "uint256"
                }
            ],
            "name": "transferFrom",
            "outputs": [
                {
                    "internalType": "bool",
                    "name": "",
                    "type": "bool"
                }
            ],
            "stateMutability": "nonpayable",
            "type": "function"
        }
    ],
    "bytecode": "608060405234801561001057600080fd5b506100216301ffc9a760e01b610036565b610031636578737160e01b610036565b6100c5565b6001600160e01b031980821614156100695760405162461bcd60e51b81526004016100609061008e565b60405180910390fd5b6001600160e01b0319166000908152602081905260409020805460ff19166001179055565b6020808252601b908201527f4b495031333a20696e76616c696420696e746572666163652069640000000000604082015260600190565b610b80806100d46000396000f3fe608060405234801561001057600080fd5b50600436106100a95760003560e01c806342842e0e1161007157806342842e0e1461012757806370a082311461013a578063a9059cbb1461014d578063b88d4fde14610160578063dd62ed3e14610173578063eb79554914610186576100a9565b806301ffc9a7146100ae578063095ea7b3146100d757806318160ddd146100ea57806323b872dd146100ff578063423f6cef14610112575b600080fd5b6100c16100bc366004610860565b610199565b6040516100ce9190610920565b60405180910390f35b6100c16100e53660046107e2565b6101bc565b6100f26101d2565b6040516100ce9190610acd565b6100c161010d366004610741565b6101d8565b6101256101203660046107e2565b610229565b005b610125610135366004610741565b610247565b6100f26101483660046106f5565b610267565b6100c161015b3660046107e2565b610282565b61012561016e36600461077c565b61028f565b6100f261018136600461070f565b6102d2565b61012561019436600461080b565b6102fd565b6001600160e01b0319811660009081526020819052604090205460ff165b919050565b60006101c9338484610330565b50600192915050565b60035490565b60006101e58484846103e4565b6001600160a01b03841660009081526002602090815260408083203380855292529091205461021f91869161021a90866104df565b610330565b5060019392505050565b6102438282604051806020016040528060008152506102fd565b5050565b6102628383836040518060200160405280600081525061028f565b505050565b6001600160a01b031660009081526001602052604090205490565b60006101c93384846103e4565b61029a8484846101d8565b506102a784848484610528565b6102cc5760405162461bcd60e51b81526004016102c39061097f565b60405180910390fd5b50505050565b6001600160a01b03918216600090815260026020908152604080832093909416825291909152205490565b6103078383610282565b5061031433848484610528565b6102625760405162461bcd60e51b81526004016102c39061097f565b6001600160a01b0383166103565760405162461bcd60e51b81526004016102c390610a8a565b6001600160a01b03821661037c5760405162461bcd60e51b81526004016102c39061093e565b6001600160a01b0380841660008181526002602090815260408083209487168084529490915290819020849055517f8c5be1e5ebec7d5bd14f71427d1e84f3dd0314c0f7b2291e5b200ac8c7c3b925906103d7908590610acd565b60405180910390a3505050565b6001600160a01b03831661040a5760405162461bcd60e51b81526004016102c390610a46565b6001600160a01b0382166104305760405162461bcd60e51b81526004016102c390610a04565b61043b838383610262565b6001600160a01b03831660009081526001602052604090205461045e90826104df565b6001600160a01b03808516600090815260016020526040808220939093559084168152205461048d90826105ee565b6001600160a01b0380841660008181526001602052604090819020939093559151908516907fddf252ad1be2c89b69c2b068fc378daa952ba7f163c4a11628f55a4df523b3ef906103d7908590610acd565b600061052183836040518060400160405280601e81526020017f536166654d6174683a207375627472616374696f6e206f766572666c6f77000081525061061d565b9392505050565b600061053c846001600160a01b0316610657565b610548575060016105e6565b604051634e8c461160e11b81526000906001600160a01b03861690639d188c229061057d9033908a90899089906004016108e3565b602060405180830381600087803b15801561059757600080fd5b505af11580156105ab573d6000803e3d6000fd5b505050506040513d601f19601f820116820180604052508101906105cf919061087c565b6001600160e01b031916634e8c461160e11b149150505b949350505050565b6000806105fb8385610ad6565b9050838110156105215760405162461bcd60e51b81526004016102c3906109cd565b600081848411156106415760405162461bcd60e51b81526004016102c3919061092b565b50600061064e8486610aee565b95945050505050565b3b151590565b80356001600160a01b03811681146101b757600080fd5b600082601f830112610684578081fd5b813567ffffffffffffffff8082111561069f5761069f610b1b565b604051601f8301601f1916810160200182811182821017156106c3576106c3610b1b565b6040528281528483016020018610156106da578384fd5b82602086016020830137918201602001929092529392505050565b600060208284031215610706578081fd5b6105218261065d565b60008060408385031215610721578081fd5b61072a8361065d565b91506107386020840161065d565b90509250929050565b600080600060608486031215610755578081fd5b61075e8461065d565b925061076c6020850161065d565b9150604084013590509250925092565b60008060008060808587031215610791578081fd5b61079a8561065d565b93506107a86020860161065d565b925060408501359150606085013567ffffffffffffffff8111156107ca578182fd5b6107d687828801610674565b91505092959194509250565b600080604083850312156107f4578182fd5b6107fd8361065d565b946020939093013593505050565b60008060006060848603121561081f578283fd5b6108288461065d565b925060208401359150604084013567ffffffffffffffff81111561084a578182fd5b61085686828701610674565b9150509250925092565b600060208284031215610871578081fd5b813561052181610b31565b60006020828403121561088d578081fd5b815161052181610b31565b60008151808452815b818110156108bd576020818501810151868301820152016108a1565b818111156108ce5782602083870101525b50601f01601f19169290920160200192915050565b6001600160a01b038581168252841660208201526040810183905260806060820181905260009061091690830184610898565b9695505050505050565b901515815260200190565b6000602082526105216020830184610898565b60208082526021908201527f4b4950373a20617070726f766520746f20746865207a65726f206164647265736040820152607360f81b606082015260800190565b6020808252602e908201527f4b4950373a207472616e7366657220746f206e6f6e204b49503752656365697660408201526d32b91034b6b83632b6b2b73a32b960911b606082015260800190565b6020808252601b908201527f536166654d6174683a206164646974696f6e206f766572666c6f770000000000604082015260600190565b60208082526022908201527f4b4950373a207472616e7366657220746f20746865207a65726f206164647265604082015261737360f01b606082015260800190565b60208082526024908201527f4b4950373a207472616e736665722066726f6d20746865207a65726f206164646040820152637265737360e01b606082015260800190565b60208082526023908201527f4b4950373a20617070726f76652066726f6d20746865207a65726f206164647260408201526265737360e81b606082015260800190565b90815260200190565b60008219821115610ae957610ae9610b05565b500190565b600082821015610b0057610b00610b05565b500390565b634e487b7160e01b600052601160045260246000fd5b634e487b7160e01b600052604160045260246000fd5b6001600160e01b031981168114610b4757600080fd5b5056fea26469706673582212200e5e4021c5e44afd7ddbbdb5393cc429cd44ad79c0c80e6529b028792199045864736f6c63430008000033",
    "sourcePath": "/Users/blluv/klaytn-contracts/contracts/KIP7/KIP7.sol",
    "compiler": {
        "name": "solc",
        "version": "0.8.0+commit.c7dfd78e"
    },
    "functionHashes": {
        "allowance(address,address)": "dd62ed3e",
        "approve(address,uint256)": "095ea7b3",
        "balanceOf(address)": "70a08231",
        "safeTransfer(address,uint256)": "423f6cef",
        "safeTransfer(address,uint256,bytes)": "eb795549",
        "safeTransferFrom(address,address,uint256)": "42842e0e",
        "safeTransferFrom(address,address,uint256,bytes)": "b88d4fde",
        "supportsInterface(bytes4)": "01ffc9a7",
        "totalSupply()": "18160ddd",
        "transfer(address,uint256)": "a9059cbb",
        "transferFrom(address,address,uint256)": "23b872dd"
    },
    "gasEstimates": {
        "creation": {
            "codeDepositCost": "588800",
            "executionCost": "infinite",
            "totalCost": "infinite"
        },
        "external": {
            "allowance(address,address)": "infinite",
            "approve(address,uint256)": "22579",
            "balanceOf(address)": "1292",
            "safeTransfer(address,uint256)": "infinite",
            "safeTransfer(address,uint256,bytes)": "infinite",
            "safeTransferFrom(address,address,uint256)": "infinite",
            "safeTransferFrom(address,address,uint256,bytes)": "infinite",
            "supportsInterface(bytes4)": "1295",
            "totalSupply()": "1073",
            "transfer(address,uint256)": "infinite",
            "transferFrom(address,address,uint256)": "infinite"
        },
        "internal": {
            "_approve(address,address,uint256)": "infinite",
            "_beforeTokenTransfer(address,address,uint256)": "infinite",
            "_burn(address,uint256)": "infinite",
            "_burnFrom(address,uint256)": "infinite",
            "_checkOnKIP7Received(address,address,uint256,bytes memory)": "infinite",
            "_mint(address,uint256)": "infinite",
            "_transfer(address,address,uint256)": "infinite"
        }
    }
}